:100000000C9463000C94F0090C94170A0C948B0068
:100010000C948B000C948B000C948B000C94A10E10
:100020000C948B000C948B000C948B000C948B0024
:100030000C948B000C948B000C948B000C948B0014
:100040000C943E0A0C948B000C94F70C0C94290D24
:100050000C948B000C948B000C948B000C948B00F4
:100060000C948B000C948B0000000008000201002F
:100070000003040700000000000000000102040863
:100080001020408001020408102001020408102002
:10009000040404040404040402020202020203032E
:1000A00003030303000000002300260029000000D2
:1000B0000000250028002B0000000000240027007D
:1000C0002A000200590D11241FBECFEFD8E0DEBF79
:1000D000CDBF11E0A0E0B1E0E0E8FEE102C0059094
:1000E0000D92AC34B107D9F722E0ACE4B1E001C025
:1000F0001D92A738B207E1F710E0C3E6D0E004C0D4
:100100002197FE010E942F0FC236D107C9F70E9426
:10011000FE0E0C943E0F0C940000DC01ED91FC915E
:100120000190F081E02D0994FC018081918197FF7D
:1001300003C09195819591099195819591090895B3
:1001400026E040E052EC61E070E083EE91E00E9436
:10015000950C61E087E00E94280B60E085E00E943A
:10016000280B60E083E00E94280B60E082E00E94A0
:10017000280B61E084E00E94280B60E086E00E948A
:10018000280B60E088E00E94280B60E089E00E9474
:10019000280B61E08DE00C94280B10925101109215
:1001A000500110924F0110924E01382F292F8134A7
:1001B000910514F030E420E0309354012093550170
:1001C000109253011092520190934D0180934C0173
:1001D000089580914E0190914F01209150013091EE
:1001E0005101821793076CF49C012F5F3F4F3093AE
:1001F0004F0120934E018A5A9E4FFC01808190E06E
:10020000089581E09FEF08958F929F92AF92BF92E1
:10021000CF92DF92EF92FF92CF93C82F6B010E9493
:10022000880A4B015C010D2C000CEE08FF088C2F96
:100230000E94920B892BB1F00E94880A68197909F3
:100240008A099B09C616D706E806F90680F780E0FA
:10025000CF91FF90EF90DF90CF90BF90AF909F90A5
:100260008F90089581E0F4CF8F929F92AF92BF92CA
:10027000CF92DF92EF92FF92CF93C82F6B010E9433
:10028000880A4B015C010D2C000CEE08FF088C2F36
:100290000E94920B892BB1F40E94880A681979098F
:1002A0008A099B09C616D706E806F90680F780E09A
:1002B000CF91FF90EF90DF90CF90BF90AF909F9045
:1002C0008F90089581E0F4CF1F93CF93DF93182F81
:1002D00060E089E00E94640B60E088E00E94640BAB
:1002E00060E083E00E94640B60E086E00E94640BA3
:1002F00060E087E00E94640B8AE090E00E94B90A07
:1003000061E089E00E94280B61E088E00E94280BF0
:1003100061E083E00E94280B61E086E00E94280BE8
:10032000612F617089E00E94640BC12FD0E0BE0193
:1003300075956795617088E00E94640BBE017595A4
:10034000679575956795617083E00E94640BBE01A7
:1003500053E0759567955A95E1F7617086E00E94C4
:10036000640B61E087E00E94640B60E177E282E069
:100370000E943401811106C081E090E0DF91CF91AD
:100380001F91089560E087E00E94640B82E390E093
:100390000E94B90A60E177E282E00E9404018823AA
:1003A00059F3BE0184E0759567958A95E1F7617010
:1003B00089E00E94640BBE0195E0759567959A955A
:1003C000E1F7617088E00E94640B26E0D595C7953F
:1003D0002A95E1F76C2F617083E00E94640B612F16
:1003E000661F6627661F86E00E94640B61E087E057
:1003F0000E94640B60E177E282E00E94340188236E
:1004000009F4BACF60E087E00E94640B82E390E0D9
:100410000E94B90A60E177E282E00E940401882329
:1004200009F4AACF60E089E00E94280B60E088E030
:100430000E94280B60E083E00E94280B60E086E0C9
:100440000E94280B90E080E099CF0F931F93CF93E9
:10045000DF9382E390E00E94B90A10E000E0D0E070
:10046000C0E061E087E00E94640B62E370E082E03C
:100470000E943401811107C08FEF9FEFDF91CF9170
:100480001F910F91089582E390E00E94B90A83E0E2
:100490000E94920B002E02C0880F991F0A94E2F767
:1004A000C82BD92B60E087E00E94640B60E177E203
:1004B00082E00E9404018823F9F286E990E00E941C
:1004C000B90A0F5F1F4F0830110559F6CE01D6CF7C
:1004D000EF92FF920F931F93CF93DF9310E000E012
:1004E000D0E0C0E060E177E282E00E943401811157
:1004F00009C08FEF9FEFDF91CF911F910F91FF9078
:10050000EF90089582E390E00E94B90A83E00E9490
:10051000920B7C0161E087E00E94640B60E177E26E
:1005200082E00E940401882321F382E390E00E948C
:10053000B90A60E087E00E94640B002E02C0EE0C56
:10054000FF1C0A94E2F7CE29DF290F5F1F4F083006
:10055000110541F6C033D10539F0C03FD10511F482
:10056000C0E3D0E0CE01C7CFCFE4D0E0FBCF8F9285
:100570009F92AF92BF92CF92DF92EF92FF926C0167
:100580000E94880A4B015C010D2C000CEE08FF084C
:1005900085E00E94920B892BA9F40E94880A6819B1
:1005A00079098A099B09C616D706E806F90680F775
:1005B00080E0FF90EF90DF90CF90BF90AF909F9042
:1005C0008F90089581E0F5CF8F929F92AF92BF9266
:1005D000CF92DF92EF92FF926C010E94880A4B014A
:1005E0005C010D2C000CEE08FF0885E00E94920BC8
:1005F000892BA9F00E94880A681979098A099B0940
:10060000C616D706E806F90680F780E0FF90EF905F
:10061000DF90CF90BF90AF909F908F90089581E032
:10062000F5CFCF93DF93EC0161E084E00E94640B8F
:10063000CE010E94B90A60E084E00E94640BCE0102
:10064000DF91CF910C94B90A8AEF90E00E941103D8
:100650008AEF90E00E9411038AEF90E00E9411035C
:100660008AEF90E00C941103CF93DF93882359F025
:10067000C8E0D0E08DE790E00E9411032197D1F708
:10068000DF91CF910895DF91CF910C942403FF92D5
:100690000F931F93CF93DF93082FF62E0E9424030E
:1006A000C4E0D0E010E0C8010C2E02C095958795FB
:1006B0000A94E2F781700E9434032196C830D10574
:1006C00091F781E00E9434030E942403D0E0C0E04F
:1006D000C8010C2E02C0959587950A94E2F78170A7
:1006E0000E9434032196C430D10591F705E010E053
:1006F000F11002C002E010E0D0E0C0E081E00E9412
:10070000340321960C171D07C9F7DF91CF911F9174
:100710000F91FF900895CF92DF92EF92FF920F9387
:100720001F93CF938C0120E137E2C9010E94B702E9
:10073000882379F10E94940AF8016083718382838F
:10074000938388EE93E00E94E402882311F188EEFF
:1007500093E00E94B702C82F8823D9F00E94940A20
:1007600028EE33E0F801C080D180E280F3806C197C
:100770007D098E099F096E30714081059105A8F2AF
:100780008C2FCF911F910F91FF90EF90DF90CF9022
:100790000895C0E0F5CFCF92DF92EF92FF920F93D2
:1007A0001F93CF93DF938C01EB010E94940A6B019E
:1007B0007C01C8010E948B03182F0E94940A6C19B7
:1007C0007D098E099F09688379838A839B83812FA2
:1007D000DF91CF911F910F91FF90EF90DF90CF901D
:1007E0000895CF92DF92EF92FF920F931F93CF93D2
:1007F000DF936B017C01D0E0C0E010E000E00E94DC
:10080000940A6C197D098E099F09603D7740810526
:10081000910548F485E00E94920B0817190709F02A
:1008200021968C01ECCF81E02C970CF480E0DF91D5
:10083000CF911F910F91FF90EF90DF90CF9008958F
:100840000E94F10391E0892708950E94940A0C9474
:10085000F103CF92DF92EF92FF920F931F93CF930A
:10086000DF9304E010E0D0E0C0E0C12CD12C760191
:10087000C3940E94940A0E94F103B701A601002EBE
:1008800004C0440F551F661F771F0A94D2F78823B0
:10089000B1F0C42BD52B0F5F1F4F0830110549F75E
:1008A0000E942504811110C08BEF9FEFDF91CF9143
:1008B0001F910F91FF90EF90DF90CF90089540959A
:1008C0005095C423D523E7CF0E94940A0E942004A8
:1008D000882351F310E000E0C12CD12C7601C394A1
:1008E0000E94940A0E94F103B701A601002E04C0E1
:1008F000440F551F661F771F0A94D2F7882369F0AB
:10090000C42BD52B0F5F1F4F0430110549F70E94F0
:100910002504882349F2CE01C9CF40955095C423C0
:10092000D523F0CFCF92DF92EF92FF920E94880AF8
:100930006B017C0183EE91E00E94BB0B892B91F44B
:100940000E94880A6C197D098E099F09613D7740D4
:100950008105910578F38FEF9FEFFF90EF90DF9087
:10096000CF90089583EE91E00E94D50BF6CFCF9201
:10097000DF92EF92FF92CF93DF930E94880A6B0180
:100980007C0183EE91E00E94BB0B0297A4F40E94CD
:10099000880A6C197D098E099F09613D77408105A0
:1009A000910578F38FEF9FEFDF91CF91FF90EF905C
:1009B000DF90CF90089583EE91E00E94D50BEC017B
:1009C00083EE91E00E94D50B20E0382FC9018C2BDB
:1009D0009D2BEACF83EE91E00E94BB0B892B61F047
:1009E00083EE91E00E94D50B9C0181E02831310516
:1009F00029F02B31310511F080E00895089585E04C
:100A00000E94920B892B31F40E94EA048823B9F3E7
:100A100080E0089581E008958F929F92AF92BF92F7
:100A2000CF92DF92EF92FF920F931F93CF93DF93BA
:100A3000EC010E94880A4B015C0180914C0190916D
:100A40004D011816190664F56E010D2E000CEE0806
:100A5000FF0800915401109155018091520190912D
:100A60005301801791070CF04FC083EE91E00E9474
:100A7000BB0B181619068CF583EE91E00E94D50B7E
:100A80002091520130915301A9014F5F5F4F509364
:100A90005301409352012A563E4FF9018083E5CF1E
:100AA00020914E0130914F01809150019091510160
:100AB000281739071CF490E080E002C081E09FEF26
:100AC000DF91CF911F910F91FF90EF90DF90CF902A
:100AD000BF90AF909F908F9008958AE090E00E9421
:100AE000B90A1C161D060CF0B4CF0E94880A6819BA
:100AF00079098A099B09C616D706E806F90608F09F
:100B0000A8CF8FEF9FEFDCCFC0914C01D0914D016A
:100B1000C01BD10BD0934D01C0934C01A80166E9D5
:100B200071E086E591E00E94350F1093510100932A
:100B3000500110924F0110924E01C134D10514F0B2
:100B4000C0E4D0E0D0935501C093540110925301FA
:100B500010925201B0CFCF93DF93EC0165E183EEA9
:100B600091E00E94480CBE0183EE91E0DF91CF91AD
:100B70000C948D00CF93DF9300D0CDB7DEB79A836E
:100B8000898397FF14C0CE0101960E94940097FFBD
:100B90000BC09195819591090E94AB0581E00F9062
:100BA0000F90DF91CF91089590E080E0F5CF80E045
:100BB000F6CF009721F00E94AB0581E0089580E018
:100BC000089566E083EE91E00C94480C4F925F929A
:100BD0006F927F928F929F92AF92BF92EF92FF920D
:100BE0000F931F93CF93DF937C010E94880A2B0100
:100BF0003C0147010F2C000CAA08BB0883EE91E0D2
:100C00000E94BB0B0091520110915301209154019D
:100C10003091550118161906BCF402171307A4F4F5
:100C200083EE91E00E94D50B209152013091530147
:100C3000A9014F5F5F4F50935301409352012A56D1
:100C40003E4FF9018083DACF0217130799F52091FF
:100C50004E0130914F018091500190915101281720
:100C6000390741F5C0914C01D0914D01C01BD10B0A
:100C7000D0934D01C0934C01A80166E971E086E56F
:100C800091E00E94350F1093510100935001109292
:100C90004F0110924E01C134D10514F0C0E4D0E0F0
:100CA000D0935501C09354011092530110925201F8
:100CB0000E94E10580914E0190914F0120915001D9
:100CC0003091510182179307DCF49C012F5F3F4F55
:100CD00030934F0120934E018A5A9E4FFC01808130
:100CE00090E0DF91CF911F910F91FF90EF90BF9017
:100CF000AF909F908F907F906F905F904F900895EE
:100D000080914C0190914D01181619061CF081E05C
:100D10009FEFE7CF1E141F040CF070CF0E94880ACB
:100D2000641975098609970986169706A806B906F3
:100D300008F064CF8FEF9FEFD4CFEF92FF920F9325
:100D40001F93CF93DF9300D0CDB7DEB77C010E9415
:100D5000B7049A83898397FF18C0CE0101960E9439
:100D6000940097FF0FC09195819591090E94AB0562
:100D700080E00F900F90DF91CF911F910F91FF9026
:100D8000EF90089590E080E0F1CF0E94E105898125
:100D90009A8197FF02C090E080E00E94CD0090E031
:100DA00080E00E94E6058C0101308FEF180779F092
:100DB000C8010E94BA058111DBCFC80117FD80E090
:100DC000F70109950E94D905882349F3D1CF81E025
:100DD000D0CFEF92FF920F931F93CF93DF930E9498
:100DE000B704D82FC92F0E94BA05811152C08D2F88
:100DF0009C2F97FF02C090E080E00E94CD000E94EF
:100E000092048C010E94BA05F82E811142C0E801BB
:100E100017FF02C0D0E0C0E00E94E10588E893E13E
:100E20000E940C0581302FEF9207D1F10E94BA0584
:100E300081112FC0F8940E94E9008C0197FD1FC01A
:100E4000F1100FC061E08DE00E94640B88EEE82E87
:100E500083E0F82E81E00E94340381E0E81AF10873
:100E6000C9F761E01C161D060CF060E0802F0E949F
:100E70004703209709F02197FF24F394DCCF78945F
:100E800081302FEF920741F20E94BA05882309F4BE
:100E9000C3CFDF91CF911F910F91FF90EF900895F5
:100EA000F89481E00E94340381E00E943403C4E698
:100EB000D0E081E00E9434032197D9F7789460E074
:100EC0008DE0DF91CF911F910F91FF90EF900C94E7
:100ED000640B62E083EE91E00C94480CCF93DF93B7
:100EE000EC018731910574F4853191052CF4833040
:100EF000910511F0409741F460E183EE91E00E948A
:100F0000480C02C04897C1F3BE0183EE91E0DF9127
:100F1000CF910C948D0063E083EE91E00C94480C2B
:100F2000EF92FF920F931F93CF93DF93CDB7DEB76E
:100F300028970FB6F894DEBF0FBECDBF0E94E10523
:100F40000E94FF04811111C082E090E00E94AB0575
:100F500028960FB6F894DEBF0FBECDBFDF91CF91BC
:100F60001F910F91FF90EF9008950E94250297FD29
:100F700005C0409719F083E090E0E8CF1D821E8203
:100F80001F821886CE0105960E948B0310E0811106
:100F900003C081E090E0DACF6D817E818F819885FA
:100FA0000E942004082F882399F00E9429047C01C4
:100FB0000E94BA058111CCCF111102C00E946907AD
:100FC000C701F7FE02C090E080E00E946E07102F7C
:100FD00019821A821B821C82BE016F5F7F4FCE0175
:100FE00005960E94CB038823A1F289819A81AB8167
:100FF000BC8181319742A105B10570F20E948B0737
:10100000A7CFCF93DF93EC0161E083EE91E00E94E4
:10101000480C63E070E083EE91E00E948D00BE0119
:1010200083EE91E0DF91CF910C948D00CF93DF930D
:10103000EC0161E083EE91E00E94480C64E070E016
:1010400083EE91E00E948D00BE0183EE91E0DF917E
:10105000CF910C948D0061E083EE91E00E94480CEA
:1010600068E070E083EE91E00C948D00CF92DF9207
:10107000EF92FF92CF93DF930E942B080E946907A3
:101080000E94940A6B017C0182E00E94920B892BE2
:1010900099F40E94940A6C197D098E099F096135A3
:1010A000734C8105910580F3DF91CF91FF90EF9014
:1010B000DF90CF900C948B0761E087E00E94640B77
:1010C00089E00E94920B31E020E0892B09F430E0A6
:1010D000C32FD22F88E00E94920B892B09F0C260A7
:1010E00083E00E94920B892B09F0C46086E00E9485
:1010F000920B892B09F0C86060E177E282E00E94E0
:10110000040181110AC081E090E0DF91CF91FF904E
:10111000EF90DF90CF900C94AB0584E690E00E94B6
:10112000B90A60E087E00E94640B60E177E282E048
:101130000E943401882339F361E087E00E94640B48
:1011400089E00E94920B892B09F0C06188E00E941F
:10115000920B892B09F0C06283E00E94920B892BCD
:1011600009F0C06486E00E94920B892B09F0C068E8
:1011700060E177E282E00E940401882321F284E6A4
:1011800090E00E94B90A60E087E00E94640B0E9430
:10119000940A6B017C01CE010E946E0775CF61E05D
:1011A00083EE91E00E94480C61E083EE91E00E94A2
:1011B000480C63E083EE91E00E94480C60E470E02C
:1011C00083EE91E00E948D0062E083EE91E00E9448
:1011D000480C45E150E065E071E083EE91E00E944B
:1011E000860D4AE050E061E070E083EE91E00E94FD
:1011F000650E6BE171E083EE91E00E94C20D4AE062
:1012000050E063E070E083EE91E00E94650E6DE1D6
:1012100071E083EE91E00E94C20D63E083EE91E005
:101220000C94480CCF93DF9300D000D0CDB7DEB73D
:1012300083EE91E00E94BB0B892B61F083EE91E07D
:101240000E94D50B8631910561F466E183EE91E051
:101250000E94480C0F900F900F900F90DF91CF914C
:1012600008950197B9F70E9492049C838B8397FF9E
:101270000CC0CE0103960E94940097FF29C091955F
:10128000819591090E94AB05E5CF86309105D1F09B
:1012900044F48130910599F00297E1F60E94E1054E
:1012A000D9CF8730910589F00897A1F60E94920462
:1012B0009A83898397FF0FC0CE010196DCCF0E94ED
:1012C000CF08C8CF0E94E906C5CF0E949007C2CFC1
:1012D00090E080E0D7CF84E691E00E949D0689816E
:1012E0009A818F3F910509F0B5CF0E943608B2CFA1
:1012F000CF92DF92EF92FF920F931F93CF93DF93E2
:101300000E94120985E00E94920B8C01892B09F141
:101310000E942502EC0197FD1CC00F97029728F050
:10132000CE018B7F81349105A1F461E087E00E94BA
:10133000640B88E293E20E94B90A60E087E00E94B1
:10134000640BCE010E940108C134D10511F40E9442
:10135000360882E00E94920B892B39F0012B29F488
:101360000E94680297FF0E9416080E94880A009156
:10137000D6011091D7012091D8013091D9016B018C
:101380007C01C01AD10AE20AF30A97018601083EDD
:10139000134021053105D0F06093D6017093D70139
:1013A0008093D8019093D9018DE00E94920B61E067
:1013B000892B09F060E08DE0DF91CF911F910F91B3
:1013C000FF90EF90DF90CF900C94640BDF91CF9162
:1013D0001F910F91FF90EF90DF90CF9008950895A7
:1013E0001F920F920FB60F9211242F933F934F939A
:1013F0005F936F937F938F939F93AF93BF93EF937D
:10140000FF93E0910001F09101010995FF91EF91A7
:10141000BF91AF919F918F917F916F915F914F910C
:101420003F912F910F900FBE0F901F9018951F9214
:101430000F920FB60F9211242F933F934F935F9308
:101440006F937F938F939F93AF93BF93EF93FF938C
:10145000E0910201F09103010995FF91EF91BF9195
:10146000AF919F918F917F916F915F914F913F913C
:101470002F910F900FBE0F901F9018951F920F92F3
:101480000FB60F9211242F933F938F939F93AF9397
:10149000BF938091DB019091DC01A091DD01B091BF
:1014A000DE013091DA0123E0230F2D3758F5019644
:1014B000A11DB11D2093DA018093DB019093DC0123
:1014C000A093DD01B093DE018091DF019091E001F6
:1014D000A091E101B091E2010196A11DB11D80939F
:1014E000DF019093E001A093E101B093E201BF918D
:1014F000AF919F918F913F912F910F900FBE0F90C1
:101500001F90189526E8230F0296A11DB11DD2CF7A
:101510002FB7F8946091DB017091DC018091DD01BF
:101520009091DE012FBF08953FB7F8948091DF01BD
:101530009091E001A091E101B091E20126B5A89B54
:1015400005C02F3F19F00196A11DB11D3FBFBA2F55
:10155000A92F982F8827BC01CD01620F711D811D15
:10156000911D42E0660F771F881F991F4A95D1F79A
:1015700008958230910538F0880F991F880F991FC0
:1015800005970197F1F70895789484B5826084BD3A
:1015900084B5816084BD85B5826085BD85B5816077
:1015A00085BDEEE6F0E0808181608083E1E8F0E0D7
:1015B0001082808182608083808181608083E0E806
:1015C000F0E0808181608083E1EBF0E080818460E5
:1015D0008083E0EBF0E0808181608083EAE7F0E0E7
:1015E000808184608083808182608083808181604B
:1015F00080838081806880831092C1000895833049
:1016000081F028F4813099F08230A9F00895873074
:10161000A9F08830C9F08430B1F4809180008F7DCA
:1016200003C0809180008F7780938000089584B5F7
:101630008F7784BD089584B58F7DFBCF8091B000F6
:101640008F778093B00008958091B0008F7DF9CF9F
:10165000CF93DF9390E0FC01E458FF4F2491805733
:101660009F4FFC0184918823C9F090E0880F991F57
:10167000FC01E854FF4FA591B491FC01E255FF4FE6
:10168000C591D49161110DC09FB7F8948C912095AC
:1016900082238C938881282328839FBFDF91CF9159
:1016A0000895623051F49FB7F8943C91822F809551
:1016B00083238C93E8812E2BEFCF8FB7F894EC9196
:1016C0002E2B2C938FBFEACF1F93CF93DF93282F1E
:1016D00030E0F901E859FF4F8491F901E458FF4FD8
:1016E000D491F901E057FF4FC491CC23A9F0162FF4
:1016F00081110E94FF0AEC2FF0E0EE0FFF1FE25570
:10170000FF4FA591B4918FB7F894EC91111108C0D7
:10171000D095DE23DC938FBFDF91CF911F91089589
:10172000DE2BF8CFCF93DF93282F30E0F901E85973
:10173000FF4F8491F901E458FF4FD491F901E0572C
:10174000FF4FC491CC23A1F081110E94FF0AEC2F1E
:10175000F0E0EE0FFF1FEC55FF4FA591B491EC9117
:10176000ED2381E090E009F480E0DF91CF910895CE
:1017700080E090E0FACFFC01918D228D892F90E0DE
:10178000805C9F4F821B91098F7399270895FC01FC
:10179000918D828D981731F0828DE80FF11D858D26
:1017A00090E008958FEF9FEF0895FC01918D828D59
:1017B000981761F0A28DAE0FBF2FB11D5D968C9171
:1017C000928D9F5F9F73928F90E008958FEF9FEFB0
:1017D0000895FC01538D448D252F30E0842F90E037
:1017E000821B930B541710F0CF960895019708951C
:1017F0008FE49DE0892B49F080E090E0892B29F06F
:101800000E944F0D81110C9400000895FC01A48DDD
:10181000A80FB92FB11DA35ABF4F2C91848D90E012
:1018200001968F739927848FA689B7892C93A089F5
:10183000B1898C91837080648C93938D848D98137F
:1018400006C00288F389E02D80818F7D8083089512
:10185000CF93DF93EC01888D8823B9F0AA89BB89E7
:10186000E889F9898C9185FD03C0808186FD0DC0D2
:101870000FB607FCF7CF8C9185FFF2CF808185FFF3
:10188000EDCFCE010E94060CE9CFDF91CF910895F4
:10189000EF92FF920F931F93CF93DF93EC0181E0C0
:1018A000888F9B8D8C8D98131AC0E889F989808167
:1018B00085FF15C09FB7F894EE89FF896083E8899A
:1018C000F98980818370806480839FBF81E090E08C
:1018D000DF91CF911F910F91FF90EF900895F62E19
:1018E0000B8D10E00F5F1F4F0F731127E02E8C8DB3
:1018F0008E110CC00FB607FCFACFE889F9898081F8
:1019000085FFF5CFCE010E94060CF1CFEB8DEC0FD9
:10191000FD2FF11DE35AFF4FF0829FB7F8940B8F14
:10192000EA89FB8980818062CFCFCF92DF92EF92EC
:10193000FF921F93CF93DF93EC016A017B01122F7B
:10194000E889F98982E08083C11481EED806E10438
:10195000F104A1F060E079E08DE390E0A701960149
:101960000E940D0F215031094109510956954795A3
:1019700037952795211580E1380798F0E889F9898E
:10198000108260E874E88EE190E0A70196010E9461
:101990000D0F215031094109510956954795379549
:1019A0002795EC85FD853083EE85FF852083188E95
:1019B000EC89FD891083EA89FB89808180618083BD
:1019C000EA89FB89808188608083EA89FB8980813C
:1019D00080688083EA89FB8980818F7D8083DF91A5
:1019E000CF911F91FF90EF90DF90CF9008951F92BD
:1019F0000F920FB60F9211242F938F939F93EF9313
:101A0000FF93E091F301F091F4018081E091F901FD
:101A1000F091FA0182FD1BC090818091FC018F5FE3
:101A20008F732091FD01821741F0E091FC01F0E0FD
:101A3000ED51FE4F958F8093FC01FF91EF919F91A7
:101A40008F912F910F900FBE0F901F90189580814E
:101A5000F4CF1F920F920FB60F9211242F933F9342
:101A60004F935F936F937F938F939F93AF93BF93A6
:101A7000EF93FF9383EE91E00E94060CFF91EF91AC
:101A8000BF91AF919F918F917F916F915F914F9196
:101A90003F912F910F900FBE0F901F90189583EEDE
:101AA00091E00E94BB0B21E0892B09F420E0822FFA
:101AB0000895E3EEF1E01382128288EE93E0A0E055
:101AC000B0E084839583A683B7838DE391E091830F
:101AD000808385EC90E09587848784EC90E09787FD
:101AE000868780EC90E0918B808B81EC90E0938BEB
:101AF000828B82EC90E0958B848B86EC90E0978BC8
:101B0000868B118E128E138E148E0895AF92BF9213
:101B1000CF92DF92EF92FF920F931F93CF93DF93B9
:101B20006C017B018B01040F151FEB015E01AE18E8
:101B3000BF08C017D10759F06991D601ED91FC910A
:101B40000190F081E02DC6010995892B79F7C50137
:101B5000DF91CF911F910F91FF90EF90DF90CF9089
:101B6000BF90AF900895FB0101900020E9F73197F5
:101B7000AF01461B570BDC01ED91FC910280F38114
:101B8000E02D09946115710511F00C94B30D90E0EE
:101B900080E00895DC01ED91FC910190F081E02D51
:101BA00009948F929F92AF92BF92EF92FF920F9300
:101BB0001F93CF93DF93CDB7DEB7A1970FB6F894FD
:101BC000DEBF0FBECDBF7C01FA01CB0119A22230CE
:101BD00008F42AE08E010F5D1F4F822E912CB12C4C
:101BE000A12CBF01A50194010E940D0FF901CA01AA
:101BF0006A300CF5605DD8016E938D01232B242B88
:101C0000252B79F790E080E0109721F0BD01C70106
:101C10000E94B30DA1960FB6F894DEBF0FBECDBFE4
:101C2000DF91CF911F910F91FF90EF90BF90AF90F8
:101C30009F908F900895695CDECFCF92DF92EF92F4
:101C4000FF920F931F93CF93DF932115310581F4FA
:101C5000DC01ED91FC910190F081E02D642FDF918A
:101C6000CF911F910F91FF90EF90DF90CF9009944B
:101C70002A30310501F52AE077FF1DC06A017B019A
:101C8000EC016DE20E94CA0D8C0144275527BA0170
:101C90004C195D096E097F092AE0CE010E94D10D21
:101CA000800F911FDF91CF911F910F91FF90EF90C7
:101CB000DF90CF900895DF91CF911F910F91FF900A
:101CC000EF90DF90CF900C94D10D9A01AB01770F7C
:101CD000660B770B0C941D0E813039F018F08230B2
:101CE00051F0089510926E00089580916F008D7FDD
:101CF00080936F000895809170008D7F80937000B5
:101D000081E08093B0008091B100887F84608093EF
:101D1000B1001092B3000895CF93C82F80910401B1
:101D2000C8130DC0E2ECF0E084919FEF90930401A2
:101D30000E946C0E60E08C2FCF910C94640B8FEF9F
:101D4000F7CF1F920F920FB60F9211242F933F934C
:101D50004F935F936F937F938F939F93AF93BF93B3
:101D6000EF93FF938091830290918402A09185026A
:101D7000B0918602892B8A2B8B2BD1F19091800216
:101D8000E0918102F0918202808189278083809195
:101D9000830290918402A0918502B0918602181668
:101DA00019061A061B069CF4809183029091840206
:101DB000A0918502B09186020197A109B109809393
:101DC000830290938402A0938502B0938602FF91D0
:101DD000EF91BF91AF919F918F917F916F915F91A3
:101DE0004F913F912F910F900FBE0F901F9018951C
:101DF000809104010E948C0EEACF08950E94C40ACB
:101E00000E94FD0E0E94A000C8EFDBE00E9478094E
:101E10002097E1F30E94F80BF9CFA1E21A2EAA1B3A
:101E2000BB1BFD010DC0AA1FBB1FEE1FFF1FA2178A
:101E3000B307E407F50720F0A21BB30BE40BF50B87
:101E4000661F771F881F991F1A9469F76095709510
:101E5000809590959B01AC01BD01CF010895EE0FD7
:101E6000FF1F0590F491E02D0994FB01DC0102C0F5
:101E700001900D9241505040D8F70895F894FFCF4B
:101E8000EF09EF09FF536861727020417264756950
:101E90006E6F2044726976657220002E00202D201E
:101EA00073796E6368726F203273202D2066696EBD
:101EB000203230306D730D0A0000000000480C869F
:0C1EC0000DE90B280CBB0BD50BC70B0069
:00000001FF
