:100000000C9463000C948D0A0C94B40A0C948B002D
:100010000C948B000C948B000C948B000C943E0F72
:100020000C948B000C948B000C948B000C94590551
:100030000C948B000C948B000C948B000C948B0014
:100040000C94DB0A0C948B000C94940D0C94C60D4C
:100050000C948B000C948B000C948B000C948B00F4
:100060000C948B000C948B0000000008000201002F
:100070000003040700000000000000000102040863
:100080001020408001020408102001020408102002
:10009000040404040404040402020202020203032E
:1000A00003030303000000002300260029000000D2
:1000B0000000250028002B0000000000240027007D
:1000C0002A000200F60D11241FBECFEFD8E0DEBFDC
:1000D000CDBF11E0A0E0B1E0EAEBFFE102C0059086
:1000E0000D92A236B107D9F723E0A2E6B1E001C034
:1000F0001D92AA3AB207E1F710E0C3E6D0E004C0CF
:100100002197FE010E94CC0FC236D107C9F70E9489
:100110009B0F0C94DB0F0C940000DC01ED91FC9123
:100120000190F081E02D0994FC018081918197FF7D
:1001300003C09195819591099195819591090895B3
:1001400026E040E052EC61E070E086E093E00E943F
:10015000320D61E087E00E94C50B60E085E00E94FF
:10016000C50B60E083E00E94C50B60E082E00E9466
:10017000C50B61E084E00E94C50B60E086E00E9450
:10018000C50B60E088E00E94C50B60E089E00E943A
:10019000C50B61E08DE00C94C50B109274021092B7
:1001A00073021092720210927102382F292F81343B
:1001B000910514F030E420E0309377022093780228
:1001C00010927602109275029093700280936F02E3
:1001D00008958F929F92AF92BF92CF92DF92EF924B
:1001E000FF92CF93C82F6B010E94250B4B015C013E
:1001F0000D2C000CEE08FF088C2F0E942F0C892B71
:10020000B1F00E94250B681979098A099B09C61665
:10021000D706E806F90680F780E0CF91FF90EF90CF
:10022000DF90CF90BF90AF909F908F90089581E026
:10023000F4CF8F929F92AF92BF92CF92DF92EF92C4
:10024000FF92CF93C82F6B010E94250B4B015C01DD
:100250000D2C000CEE08FF088C2F0E942F0C892B10
:10026000B1F40E94250B681979098A099B09C61601
:10027000D706E806F90680F780E0CF91FF90EF906F
:10028000DF90CF90BF90AF909F908F90089581E0C6
:10029000F4CF1F93CF93DF93182F60E089E00E9483
:1002A000010C60E088E00E94010C60E083E00E94A5
:1002B000010C60E086E00E94010C60E087E00E9493
:1002C000010C8AE090E00E94560B61E089E00E94F8
:1002D000C50B61E088E00E94C50B61E083E00E94ED
:1002E000C50B61E086E00E94C50B612F617089E05B
:1002F0000E94010CC12FD0E0BE0175956795617019
:1003000088E00E94010CBE0175956795759567950B
:10031000617083E00E94010CBE0153E07595679502
:100320005A95E1F7617086E00E94010C61E087E078
:100330000E94010C60E177E282E00E9419018111C4
:1003400006C081E090E0DF91CF911F91089560E0B9
:1003500087E00E94010C82E390E00E94560B60E16E
:1003600077E282E00E94E900882359F3BE0184E02D
:10037000759567958A95E1F7617089E00E94010C97
:10038000BE0195E0759567959A95E1F7617088E0F3
:100390000E94010C26E0D595C7952A95E1F76C2FB0
:1003A000617083E00E94010C612F661F6627661F43
:1003B00086E00E94010C61E087E00E94010C60E190
:1003C00077E282E00E941901882309F4BACF60E045
:1003D00087E00E94010C82E390E00E94560B60E1EE
:1003E00077E282E00E94E900882309F4AACF60E066
:1003F00089E00E94C50B60E088E00E94C50B60E0C8
:1004000083E00E94C50B60E086E00E94C50B90E08F
:1004100080E099CF0F931F93CF93DF9382E390E017
:100420000E94560B10E000E0D0E0C0E061E087E001
:100430000E94010C62E370E082E00E9419018111C8
:1004400007C08FEF9FEFDF91CF911F910F9108951C
:1004500082E390E00E94560B83E00E942F0C002E56
:1004600002C0880F991F0A94E2F7C82BD92B60E0CD
:1004700087E00E94010C60E177E282E00E94E900DF
:100480008823F9F286E990E00E94560B0F5F1F4F18
:100490000830110559F6CE01D6CFEF92FF920F9397
:1004A0001F93CF93DF9310E000E0D0E0C0E060E165
:1004B00077E282E00E941901811109C08FEF9FEF5E
:1004C000DF91CF911F910F91FF90EF90089582E3FC
:1004D00090E00E94560B83E00E942F0C7C0161E0AB
:1004E00087E00E94010C60E177E282E00E94E9006F
:1004F000882321F382E390E00E94560B60E087E0BE
:100500000E94010C002E02C0EE0CFF1C0A94E2F7C0
:10051000CE29DF290F5F1F4F0830110541F6C03388
:10052000D10539F0C03FD10511F4C0E3D0E0CE01D0
:10053000C7CFCFE4D0E0FBCF80916D0190916E01E9
:100540008150891B08958823E1F08630D1F08530F1
:10055000D1F08B30C0F4282F30E0853060F48091EA
:10056000640190E02D5F3F4F02C0959587952A95D5
:10057000E2F7817008958091640190E0275031097D
:10058000F3CF80E0089581E0089524EF31E08823DF
:1005900011F02AEF30E03093030120930201811122
:1005A00004C084E080930401089588E0FBCF90911B
:1005B0006D0180916E01981749F1E0916D0181E024
:1005C0008E0F80936D01F0E0E159FE4F80818093A2
:1005D00064011092660180916B0190916C010A9701
:1005E00098F08DE08093650181E090E090930101A7
:1005F0008093000184EF91E09093030180930201C6
:1006000084E080930401089580E1ECCF82E090E0E3
:1006100090930101809300018AEF90E09093030191
:100620008093020188E0EDCF80910001909101015B
:10063000892B69F4809167019091680101979093EB
:10064000680180936701892BA1F50C94D7028091F2
:100650000001909101010197B1F5809166018F5FD2
:100660008093660190916501891730F4809166014D
:100670000E94A3020C94C50280916B0190916C01C1
:10068000019690936C0180936B0120916B013091E6
:100690006C018091690190916A0128173907A9F6C8
:1006A00083E090E0909301018093000182E08093C9
:1006B00063018AEF90E0909303018093020188E048
:1006C00080930401089580910001909101010297A7
:1006D00009F4BBCF8091000190910101039791F73C
:1006E000809163018150809363018111E2CF8091F9
:1006F0006F008D7F80936F005C9884E090E0909312
:1007000001018093000181E08093620108955C9B68
:1007100018C05C988091020190910301209188009B
:1007200030918900820F931F9093890080938800F5
:1007300080910401815080930401811111C00C94B7
:1007400014035C9A2091020130910301809188008A
:1007500090918900820F931F909389008093880065
:10076000089590936A018093690110926C01109230
:100770006B0188EE93E0909368018093670110927B
:10078000010110920001109262018AEF90E09093B3
:1007900003018093020188E080930401109280009D
:1007A00082E08093810086BB8091840090918500D7
:1007B0002091020130910301820F931F90938900D1
:1007C00080938800EFE6F0E0808182608083089566
:1007D0009FB7F894EFE6F0E080818D7F80835C988E
:1007E00024E030E030930101209300019FBF089581
:1007F0008F929F92AF92BF92CF92DF92EF92FF9231
:100800006C010E94250B4B015C010D2C000CEE08C5
:10081000FF0885E00E942F0C892BA9F40E94250B6C
:10082000681979098A099B09C616D706E806F906E8
:1008300080F780E0FF90EF90DF90CF90BF90AF9077
:100840009F908F90089581E0F5CF8F929F92AF9205
:10085000BF92CF92DF92EF92FF926C010E94250B24
:100860004B015C010D2C000CEE08FF0885E00E9496
:100870002F0C892BA9F00E94250B681979098A0988
:100880009B09C616D706E806F90680F780E0FF90B8
:10089000EF90DF90CF90BF90AF909F908F90089592
:1008A00081E0F5CFCF92DF92EF92FF920F931F93EB
:1008B000CF938C0120E137E2C9010E94F80388231D
:1008C00079F10E94310BF8016083718382839383F5
:1008D00088EE93E00E942504882311F188EE93E0CE
:1008E0000E94F803C82F8823D9F00E94310B28EE0C
:1008F00033E0F801C080D180E280F3806C197D097B
:100900008E099F096E30714081059105A8F28C2FE8
:10091000CF911F910F91FF90EF90DF90CF900895AE
:10092000C0E0F5CFCF92DF92EF92FF920F931F932B
:10093000CF93DF938C01EB010E94310B6B017C01A3
:10094000C8010E945204182F0E94310B6C197D09B6
:100950008E099F09688379838A839B83812FDF9126
:10096000CF911F910F91FF90EF90DF90CF9008955E
:10097000CF92DF92EF92FF920F931F93CF93DF936B
:100980006B017C01D0E0C0E010E000E00E94310B80
:100990006C197D098E099F09603D7740810591059D
:1009A00048F485E00E942F0C0817190709F02196DA
:1009B0008C01ECCF81E02C970CF480E0DF91CF919B
:1009C0001F910F91FF90EF90DF90CF9008950E94BC
:1009D000B80491E0892708950E94310B0C94B80463
:1009E000CF92DF92EF92FF920F931F93CF93DF93FB
:1009F00004E010E0D0E0C0E0C12CD12C7601C3941B
:100A00000E94310B0E94B804B701A601002E04C059
:100A1000440F551F661F771F0A94D2F78823B1F041
:100A2000C42BD52B0F5F1F4F0830110549F70E94CB
:100A3000EC04811110C08BEF9FEFDF91CF911F91DC
:100A40000F91FF90EF90DF90CF90089540955095D3
:100A5000C423D523E7CF0E94310B0E94E7048823EB
:100A600051F310E000E0C12CD12C7601C3940E9418
:100A7000310B0E94B804B701A601002E04C0440F38
:100A8000551F661F771F0A94D2F7882369F0C42B7D
:100A9000D52B0F5F1F4F0430110549F70E94EC045E
:100AA000882349F2CE01C9CF40955095C423D52360
:100AB000F0CF1F920F920FB60F9211242F933F93F6
:100AC0004F935F936F937F938F939F93AF93BF9356
:100AD000EF93FF930E948703FF91EF91BF91AF9136
:100AE0009F918F917F916F915F914F913F912F9146
:100AF0000F900FBE0F901F901895CF92DF92EF923C
:100B0000FF920E94250B6B017C0186E093E00E941E
:100B1000580C892B91F40E94250B6C197D098E09C4
:100B20009F09613D77408105910578F38FEF9FEF35
:100B3000FF90EF90DF90CF90089586E093E00E94C1
:100B4000720CF6CFCF92DF92EF92FF92CF93DF93AA
:100B50000E94250B6B017C0186E093E00E94580CFB
:100B60000297A4F40E94250B6C197D098E099F0938
:100B7000613D77408105910578F38FEF9FEFDF911D
:100B8000CF91FF90EF90DF90CF90089586E093E0B3
:100B90000E94720CEC0186E093E00E94720C20E04F
:100BA000382FC9018C2B9D2BEACF86E093E00E9461
:100BB000580C892B61F086E093E00E94720C9C0136
:100BC00081E02831310529F02B31310511F080E029
:100BD0000895089585E00E942F0C892B31F40E941E
:100BE000D5058823B9F380E0089581E00895CF9377
:100BF000DF93EC0165E186E093E00E94E50CBE0125
:100C000086E093E0DF91CF910C948D00CF93DF933A
:100C100000D0CDB7DEB79A83898397FF14C0CE0189
:100C200001960E94940097FF0BC0919581959109C0
:100C30000E94F70581E00F900F90DF91CF9108950A
:100C400090E080E0F5CF80E0F6CF009721F00E94A1
:100C5000F70581E0089580E0089566E086E093E07E
:100C60000C94E50C4F925F926F927F928F929F92BD
:100C7000AF92BF92EF92FF920F931F93CF93DF93A8
:100C80007C010E94250B2B013C0147010F2C000C1D
:100C9000AA08BB0886E093E00E94580C00917502F8
:100CA0001091760220917702309178021816190679
:100CB000BCF402171307A4F486E093E00E94720CC0
:100CC0002091750230917602A9014F5F5F4F5093DA
:100CD00076024093750227543D4FF9018083DACFA5
:100CE0000217130799F520917102309172028091D9
:100CF0007302909174022817390741F5C0916F0271
:100D0000D0917002C01BD10BD0937002C0936F02C0
:100D1000A80169EB72E089E792E00E94D20F10937C
:100D20007402009373021092720210927102C13425
:100D3000D10514F0C0E4D0E0D0937802C0937702DC
:100D400010927602109275020E942D068091710217
:100D5000909172022091730230917402821793076E
:100D6000DCF49C012F5F3F4F30937202209371029D
:100D700087589D4FFC01808190E0DF91CF911F91BA
:100D80000F91FF90EF90BF90AF909F908F907F90CA
:100D90006F905F904F90089580916F0290917002D4
:100DA000181619061CF081E09FEFE7CF1E141F04F0
:100DB0000CF070CF0E94250B6419750986099709FC
:100DC00086169706A806B90608F064CF8FEF9FEF46
:100DD000D4CFEF92FF920F931F93CF93DF9300D066
:100DE000CDB7DEB77C010E94A2059A83898397FF65
:100DF00018C0CE0101960E94940097FF0FC09195F4
:100E0000819591090E94F70580E00F900F90DF9186
:100E1000CF911F910F91FF90EF90089590E080E0A7
:100E2000F1CF0E942D0689819A8197FF02C090E040
:100E300080E00E94CD0090E080E00E9432068C01AC
:100E400001308FEF180779F0C8010E940606811162
:100E5000DBCFC80117FD80E0F70109950E94250648
:100E6000882349F3D1CF81E0D0CF62E086E093E0E0
:100E70000C94E50CCF93DF93EC018731910574F46A
:100E8000853191052CF48330910511F0409741F4A0
:100E900060E186E093E00E94E50C02C04897C1F350
:100EA000BE0186E093E0DF91CF910C948D0063E06A
:100EB00086E093E00C94E50CEF92FF920F931F9362
:100EC000CF93DF93CDB7DEB728970FB6F894DEBF88
:100ED0000FBECDBF0E942D060E94EA05811111C0F0
:100EE00082E090E00E94F70528960FB6F894DEBFE6
:100EF0000FBECDBFDF91CF911F910F91FF90EF906B
:100F000008950E940A0297FD05C0409719F083E0FA
:100F100090E0E8CF1D821E821F821886CE010596C2
:100F20000E94520410E0811103C081E090E0DACF0A
:100F30006D817E818F8198850E94E704082F882328
:100F400099F00E94F0047C010E9406068111CCCF2A
:100F5000111102C00E943507C701F7FE02C090E0E0
:100F600080E00E943A07102F19821A821B821C828D
:100F7000BE016F5F7F4FCE0105960E9492048823C9
:100F8000A1F289819A81AB81BC8181319742A1050F
:100F9000B10570F20E945707A7CFCF93DF93EC0102
:100FA00061E086E093E00E94E50C63E070E086E09B
:100FB00093E00E948D00BE0186E093E0DF91CF9127
:100FC0000C948D00CF93DF93EC0161E086E093E019
:100FD0000E94E50C64E070E086E093E00E948D00E2
:100FE000BE0186E093E0DF91CF910C948D0061E02B
:100FF00086E093E00E94E50C68E070E086E093E014
:101000000C948D00CF92DF92EF92FF92CF93DF93FB
:101010000E94F7070E9435070E94310B6B017C018B
:1010200082E00E942F0C892B99F40E94310B6C19DD
:101030007D098E099F096135734C8105910580F307
:10104000DF91CF91FF90EF90DF90CF900C945707F6
:1010500061E087E00E94010C89E00E942F0C31E0E2
:1010600020E0892B09F430E0C32FD22F88E00E94C2
:101070002F0C892B09F0C26083E00E942F0C892B72
:1010800009F0C46086E00E942F0C892B09F0C8602B
:1010900060E177E282E00E94E90081110AC081E00C
:1010A00090E0DF91CF91FF90EF90DF90CF900C9484
:1010B000F70584E690E00E94560B60E087E00E940E
:1010C000010C60E177E282E00E941901882339F384
:1010D00061E087E00E94010C89E00E942F0C892BBF
:1010E00009F0C06188E00E942F0C892B09F0C062D2
:1010F00083E00E942F0C892B09F0C06486E00E94D7
:101100002F0C892B09F0C06860E177E282E00E9431
:10111000E900882321F284E690E00E94560B60E00B
:1011200087E00E94010C0E94310B6B017C01CE0113
:101130000E943A0775CF8F929F92AF92BF92CF9243
:10114000DF92EF92FF920F931F93CF93DF930E9452
:10115000A205EC010E9406068111B1C00E947D0526
:101160008C010E940606F82E8111A9C01C161D06CE
:101170001CF40A30110581F083E090E0DF91CF91FB
:101180001F910F91FF90EF90DF90CF90BF90AF90A5
:101190009F908F900C94F70510926D0110926E0144
:1011A0000E942D0610E000E00C171D0708F06EC02D
:1011B000CE01801B910BDC2ED01A8134910510F0EA
:1011C00080E4D82E0E94250B4B015C01E12CED142C
:1011D000C0F580916E0190916D018F5F891315C0EC
:1011E0000E94250B681979098A099B09693873419E
:1011F0008105910560F3F1100E94E80360E08DE045
:101200000E94010C81E090E0B9CF86E093E00E945B
:10121000580C892B29F386E093E00E94720CE09130
:101220006E0191E09E0F90936E01F0E0E159FE4F48
:101230008083E3940F5F1F4F0E94250B4B015C01DD
:10124000C6CFF11007C061E08DE00E94010CCE0115
:101250000E94B1030C171D07A0F40E94250B6B011F
:101260007C010E949C02803460F40E94250B6C1962
:101270007D098E099F09613177428105910588F3C7
:10128000BBCF0E942D06FF24F3948ECF8091620184
:101290008823E1F360E08DE00E94010C63E086E0CA
:1012A00093E0DF91CF911F910F91FF90EF90DF902E
:1012B000CF90BF90AF909F908F900C94E50CDF91F2
:1012C000CF911F910F91FF90EF90DF90CF90BF9043
:1012D000AF909F908F90089561E086E093E00E9428
:1012E000E50C61E086E093E00E94E50C63E086E0B7
:1012F00093E00E94E50C60E470E086E093E00E94D9
:101300008D0062E086E093E00E94E50C45E150E04C
:101310006AE071E086E093E00E94230E4AE050E02C
:1013200061E070E086E093E00E94020F60E271E00D
:1013300086E093E00E945F0E4AE050E063E070E0D8
:1013400086E093E00E94020F62E271E086E093E0A3
:101350000E945F0E63E086E093E00C94E50CCF936F
:10136000DF9300D000D0CDB7DEB786E093E00E94D7
:10137000580C892B61F086E093E00E94720C863154
:10138000910561F466E186E093E00E94E50C0F9020
:101390000F900F900F90DF91CF9108950197B9F7BB
:1013A0000E947D059C838B8397FF0CC0CE01039622
:1013B0000E94940097FF29C09195819591090E9400
:1013C000F705E5CF86309105D1F044F481309105E1
:1013D00099F00297E1F60E942D06D9CF873091054A
:1013E00089F00897A1F60E947D059A83898397FF6B
:1013F0000FC0CE010196DCCF0E946C09C8CF0E94BD
:101400009B08C5CF0E945C07C2CF90E080E0D7CF99
:1014100089E491E00E94E90689819A818F3F9105D4
:1014200009F0B5CF0E940208B2CFCF92DF92EF92BF
:10143000FF920F931F93CF93DF930E94AF0985E034
:101440000E942F0C8C01892B09F10E940A02EC01E9
:1014500097FD1CC00F97029728F0CE018B7F813437
:101460009105A1F461E087E00E94010C88E293E21B
:101470000E94560B60E087E00E94010CCE010E94A2
:10148000CD07C134D10511F40E94020882E00E9408
:101490002F0C892B39F0012B29F40E944D0297FF64
:1014A0000E94E2070E94250B0091F9021091FA02B6
:1014B0002091FB023091FC026B017C01C01AD10A21
:1014C000E20AF30A97018601083E1340210531051F
:1014D000D0F06093F9027093FA028093FB0290932C
:1014E000FC028DE00E942F0C61E0892B09F060E086
:1014F0008DE0DF91CF911F910F91FF90EF90DF90E2
:10150000CF900C94010CDF91CF911F910F91FF9020
:10151000EF90DF90CF90089508951F920F920FB62D
:101520000F9211242F933F934F935F936F937F9369
:101530008F939F93AF93BF93EF93FF93E091050138
:10154000F09106010995FF91EF91BF91AF919F91A5
:101550008F917F916F915F914F913F912F910F905C
:101560000FBE0F901F9018951F920F920FB60F92FB
:1015700011242F933F934F935F936F937F938F9398
:101580009F93AF93BF93EF93FF93E0910701F09187
:1015900008010995FF91EF91BF91AF919F918F91B4
:1015A0007F916F915F914F913F912F910F900FBE5F
:1015B0000F901F9018951F920F920FB60F92112443
:1015C0002F933F938F939F93AF93BF938091FE028E
:1015D0009091FF02A0910003B09101033091FD02B0
:1015E00023E0230F2D3758F50196A11DB11D20933F
:1015F000FD028093FE029093FF02A0930003B0933C
:1016000001038091020390910303A0910403B09120
:1016100005030196A11DB11D80930203909303035E
:10162000A0930403B0930503BF91AF919F918F9155
:101630003F912F910F900FBE0F901F90189526E8A5
:10164000230F0296A11DB11DD2CF2FB7F894609140
:10165000FE027091FF0280910003909101032FBF61
:1016600008953FB7F8948091020390910303A091ED
:101670000403B091050326B5A89B05C02F3F19F0C0
:101680000196A11DB11D3FBFBA2FA92F982F882702
:10169000BC01CD01620F711D811D911D42E0660FDD
:1016A000771F881F991F4A95D1F7089582309105B9
:1016B00038F0880F991F880F991F05970197F1F748
:1016C0000895789484B5826084BD84B5816084BDBA
:1016D00085B5826085BD85B5816085BDEEE6F0E0AB
:1016E000808181608083E1E8F0E010828081826007
:1016F0008083808181608083E0E8F0E08081816088
:101700008083E1EBF0E0808184608083E0EBF0E0B7
:10171000808181608083EAE7F0E08081846080835B
:101720008081826080838081816080838081806805
:1017300080831092C1000895833081F028F48130B5
:1017400099F08230A9F008958730A9F08830C9F067
:101750008430B1F4809180008F7D03C0809180003F
:101760008F7780938000089584B58F7784BD089526
:1017700084B58F7DFBCF8091B0008F778093B000D0
:1017800008958091B0008F7DF9CFCF93DF9390E0E3
:10179000FC01E458FF4F249180579F4FFC01849136
:1017A0008823C9F090E0880F991FFC01E854FF4F8F
:1017B000A591B491FC01E255FF4FC591D4916111FF
:1017C0000DC09FB7F8948C91209582238C938881CB
:1017D000282328839FBFDF91CF910895623051F471
:1017E0009FB7F8943C91822F809583238C93E88156
:1017F0002E2BEFCF8FB7F894EC912E2B2C938FBF1D
:10180000EACF1F93CF93DF93282F30E0F901E859F7
:10181000FF4F8491F901E458FF4FD491F901E0574B
:10182000FF4FC491CC23A9F0162F81110E949C0B6D
:10183000EC2FF0E0EE0FFF1FE255FF4FA591B491A2
:101840008FB7F894EC91111108C0D095DE23DC938A
:101850008FBFDF91CF911F910895DE2BF8CFCF93EB
:10186000DF93282F30E0F901E859FF4F8491F90107
:10187000E458FF4FD491F901E057FF4FC491CC23B6
:10188000A1F081110E949C0BEC2FF0E0EE0FFF1FE6
:10189000EC55FF4FA591B491EC91ED2381E090E0E0
:1018A00009F480E0DF91CF91089580E090E0FACFD5
:1018B000FC01918D228D892F90E0805C9F4F821BCF
:1018C00091098F7399270895FC01918D828D981746
:1018D00031F0828DE80FF11D858D90E008958FEF36
:1018E0009FEF0895FC01918D828D981761F0A28D74
:1018F000AE0FBF2FB11D5D968C91928D9F5F9F7330
:10190000928F90E008958FEF9FEF0895FC01538D23
:10191000448D252F30E0842F90E0821B930B5417C9
:1019200010F0CF960895019708958CEE9DE0892BD5
:1019300049F080E090E0892B29F00E94EC0D8111A4
:101940000C9400000895FC01A48DA80FB92FB11DBF
:10195000A35ABF4F2C91848D90E001968F739927E5
:10196000848FA689B7892C93A089B1898C918370C3
:1019700080648C93938D848D981306C00288F389BC
:10198000E02D80818F7D80830895CF93DF93EC01DC
:10199000888D8823B9F0AA89BB89E889F9898C9157
:1019A00085FD03C0808186FD0DC00FB607FCF7CF13
:1019B0008C9185FFF2CF808185FFEDCFCE010E9413
:1019C000A30CE9CFDF91CF910895EF92FF920F938F
:1019D0001F93CF93DF93EC0181E0888F9B8D8C8DDB
:1019E00098131AC0E889F989808185FF15C09FB7CF
:1019F000F894EE89FF896083E889F9898081837092
:101A0000806480839FBF81E090E0DF91CF911F9140
:101A10000F91FF90EF900895F62E0B8D10E00F5F61
:101A20001F4F0F731127E02E8C8D8E110CC00FB637
:101A300007FCFACFE889F989808185FFF5CFCE01CF
:101A40000E94A30CF1CFEB8DEC0FFD2FF11DE35A9B
:101A5000FF4FF0829FB7F8940B8FEA89FB89808152
:101A60008062CFCFCF92DF92EF92FF921F93CF93FE
:101A7000DF93EC016A017B01122FE889F98982E08A
:101A80008083C11481EED806E104F104A1F060E086
:101A900079E08DE390E0A70196010E94AA0F215002
:101AA00031094109510956954795379527952115D3
:101AB00080E1380798F0E889F989108260E874E8D5
:101AC0008EE190E0A70196010E94AA0F21503109F2
:101AD000410951095695479537952795EC85FD8520
:101AE0003083EE85FF852083188EEC89FD89108375
:101AF000EA89FB89808180618083EA89FB89808112
:101B000088608083EA89FB89808180688083EA8994
:101B1000FB8980818F7D8083DF91CF911F91FF9022
:101B2000EF90DF90CF9008951F920F920FB60F9213
:101B300011242F938F939F93EF93FF93E0911603BC
:101B4000F09117038081E0911C03F0911D0382FD49
:101B50001BC0908180911F038F5F8F7320912003A2
:101B6000821741F0E0911F03F0E0EA5FFC4F958F90
:101B700080931F03FF91EF919F918F912F910F9071
:101B80000FBE0F901F9018958081F4CF1F920F9277
:101B90000FB60F9211242F933F934F935F936F9340
:101BA0007F938F939F93AF93BF93EF93FF9386E0C1
:101BB00093E00E94A30CFF91EF91BF91AF919F9191
:101BC0008F917F916F915F914F913F912F910F90E6
:101BD0000FBE0F901F90189586E093E00E94580C5E
:101BE00021E0892B09F420E0822F0895E6E0F3E05C
:101BF0001382128288EE93E0A0E0B0E084839583A4
:101C0000A683B78383E591E09183808385EC90E0A0
:101C10009587848784EC90E09787868780EC90E0B6
:101C2000918B808B81EC90E0938B828B82EC90E0A7
:101C3000958B848B86EC90E0978B868B118E128E21
:101C4000138E148E0895AF92BF92CF92DF92EF92CF
:101C5000FF920F931F93CF93DF936C017B018B0156
:101C6000040F151FEB015E01AE18BF08C017D107A6
:101C700059F06991D601ED91FC910190F081E02D30
:101C8000C6010995892B79F7C501DF91CF911F9185
:101C90000F91FF90EF90DF90CF90BF90AF9008959D
:101CA000FB0101900020E9F73197AF01461B570B6C
:101CB000DC01ED91FC910280F381E02D0994611526
:101CC000710511F00C94500E90E080E00895DC0155
:101CD000ED91FC910190F081E02D09948F929F92FB
:101CE000AF92BF92EF92FF920F931F93CF93DF9328
:101CF000CDB7DEB7A1970FB6F894DEBF0FBECDBF4C
:101D00007C01FA01CB0119A2223008F42AE08E01ED
:101D10000F5D1F4F822E912CB12CA12CBF01A5016C
:101D200094010E94AA0FF901CA016A300CF5605DA6
:101D3000D8016E938D01232B242B252B79F790E06E
:101D400080E0109721F0BD01C7010E94500EA196BE
:101D50000FB6F894DEBF0FBECDBFDF91CF911F91BC
:101D60000F91FF90EF90BF90AF909F908F9008954C
:101D7000695CDECFCF92DF92EF92FF920F931F93B9
:101D8000CF93DF932115310581F4DC01ED91FC91B6
:101D90000190F081E02D642FDF91CF911F910F9181
:101DA000FF90EF90DF90CF9009942A30310501F534
:101DB0002AE077FF1DC06A017B01EC016DE20E9401
:101DC000670E8C0144275527BA014C195D096E092D
:101DD0007F092AE0CE010E946E0E800F911FDF91D5
:101DE000CF911F910F91FF90EF90DF90CF900895CA
:101DF000DF91CF911F910F91FF90EF90DF90CF90E7
:101E00000C946E0E9A01AB01770F660B770B0C9456
:101E1000BA0E813039F018F0823051F008951092E6
:101E20006E00089580916F008D7F80936F000895FC
:101E3000809170008D7F8093700081E08093B0006E
:101E40008091B100887F84608093B1001092B300CC
:101E50000895CF93C82F80910901C8130DC0E2ECFB
:101E6000F0E084919FEF909309010E94090F60E0D8
:101E70008C2FCF910C94010C8FEFF7CF1F920F9204
:101E80000FB60F9211242F933F934F935F936F934D
:101E90007F938F939F93AF93BF93EF93FF93809123
:101EA000A6039091A703A091A803B091A903892B41
:101EB0008A2B8B2BD1F19091A303E091A403F09195
:101EC000A5038081892780838091A6039091A70331
:101ED000A091A803B091A903181619061A061B06AB
:101EE0009CF48091A6039091A703A091A803B091C0
:101EF000A9030197A109B1098093A6039093A703B1
:101F0000A093A803B093A903FF91EF91BF91AF9164
:101F10009F918F917F916F915F914F913F912F9101
:101F20000F900FBE0F901F901895809109010E948D
:101F3000290FEACF08950E94610B0E949A0F0E9418
:101F4000A000C5E9DCE00E94150A2097E1F30E9499
:101F5000950CF9CFA1E21A2EAA1BBB1BFD010DC0E7
:101F6000AA1FBB1FEE1FFF1FA217B307E407F50749
:101F700020F0A21BB30BE40BF50B661F771F881F25
:101F8000991F1A9469F760957095809590959B01BB
:101F9000AC01BD01CF010895EE0FFF1F0590F49134
:101FA000E02D0994FB01DC0102C001900D9241502B
:0A1FB0005040D8F70895F894FFCFD1
:101FBA000400FA00088C0A8C0AFF536861727020C8
:101FCA0041726475696E6F20447269766572200089
:101FDA002E00202D2073796E6368726F2032732071
:101FEA002D20666C757820636F6E74696E75205645
:101FFA0035202D2067617264652036340D0A000091
:10200A00000000E50C230E860CC50C580C720C64FB
:02201A000C00B8
:00000001FF
