:100000000C9463000C946B0A0C94920A0C948B0071
:100010000C948B000C948B000C948B000C941C0F94
:100020000C948B000C948B000C948B000C94520558
:100030000C948B000C948B000C948B000C948B0014
:100040000C94B90A0C948B000C94720D0C94A40DB2
:100050000C948B000C948B000C948B000C948B00F4
:100060000C948B000C948B0000000008000201002F
:100070000003040700000000000000000102040863
:100080001020408001020408102001020408102002
:10009000040404040404040402020202020203032E
:1000A00003030303000000002300260029000000D2
:1000B0000000250028002B0000000000240027007D
:1000C0002A000200D40D11241FBECFEFD8E0DEBFFE
:1000D000CDBF11E0A0E0B1E0E6E7FFE102C005908E
:1000E0000D92A635B107D9F723E0A6E5B1E001C02E
:1000F0001D92AE39B207E1F710E0C3E6D0E004C0CC
:100100002197FE010E94AA0FC236D107C9F70E94AB
:10011000790F0C94B90F0C940000DC01ED91FC9167
:100120000190F081E02D0994FC018081918197FF7D
:1001300003C09195819591099195819591090895B3
:1001400026E040E052EC61E070E08AEF92E00E942D
:10015000100D61E087E00E94A30B60E085E00E9443
:10016000A30B60E083E00E94A30B60E082E00E94AA
:10017000A30B61E084E00E94A30B60E086E00E9494
:10018000A30B60E088E00E94A30B60E089E00E947E
:10019000A30B61E08DE00C94A30B10926802109207
:1001A00067021092660210926502382F292F81345F
:1001B000910514F030E420E030936B0220936C0240
:1001C00010926A0210926902909364028093630213
:1001D00008958F929F92AF92BF92CF92DF92EF924B
:1001E000FF92CF93C82F6B010E94030B4B015C0160
:1001F0000D2C000CEE08FF088C2F0E940D0C892B93
:10020000B1F00E94030B681979098A099B09C61687
:10021000D706E806F90680F780E0CF91FF90EF90CF
:10022000DF90CF90BF90AF909F908F90089581E026
:10023000F4CF8F929F92AF92BF92CF92DF92EF92C4
:10024000FF92CF93C82F6B010E94030B4B015C01FF
:100250000D2C000CEE08FF088C2F0E940D0C892B32
:10026000B1F40E94030B681979098A099B09C61623
:10027000D706E806F90680F780E0CF91FF90EF906F
:10028000DF90CF90BF90AF909F908F90089581E0C6
:10029000F4CF1F93CF93DF93182F60E089E00E9483
:1002A000DF0B60E088E00E94DF0B60E083E00E94EB
:1002B000DF0B60E086E00E94DF0B60E087E00E94D9
:1002C000DF0B8AE090E00E94340B61E089E00E943D
:1002D000A30B61E088E00E94A30B61E083E00E9431
:1002E000A30B61E086E00E94A30B612F617089E09F
:1002F0000E94DF0BC12FD0E0BE017595679561703C
:1003000088E00E94DF0BBE0175956795759567952E
:10031000617083E00E94DF0BBE0153E07595679525
:100320005A95E1F7617086E00E94DF0B61E087E09B
:100330000E94DF0B60E177E282E00E9419018111E7
:1003400006C081E090E0DF91CF911F91089560E0B9
:1003500087E00E94DF0B82E390E00E94340B60E1B3
:1003600077E282E00E94E900882359F3BE0184E02D
:10037000759567958A95E1F7617089E00E94DF0BBA
:10038000BE0195E0759567959A95E1F7617088E0F3
:100390000E94DF0B26E0D595C7952A95E1F76C2FD3
:1003A000617083E00E94DF0B612F661F6627661F66
:1003B00086E00E94DF0B61E087E00E94DF0B60E1D6
:1003C00077E282E00E941901882309F4BACF60E045
:1003D00087E00E94DF0B82E390E00E94340B60E133
:1003E00077E282E00E94E900882309F4AACF60E066
:1003F00089E00E94A30B60E088E00E94A30B60E00C
:1004000083E00E94A30B60E086E00E94A30B90E0D3
:1004100080E099CF0F931F93CF93DF9382E390E017
:100420000E94340B10E000E0D0E0C0E061E087E023
:100430000E94DF0B62E370E082E00E9419018111EB
:1004400007C08FEF9FEFDF91CF911F910F9108951C
:1004500082E390E00E94340B83E00E940D0C002E9A
:1004600002C0880F991F0A94E2F7C82BD92B60E0CD
:1004700087E00E94DF0B60E177E282E00E94E90002
:100480008823F9F286E990E00E94340B0F5F1F4F3A
:100490000830110559F6CE01D6CFEF92FF920F9397
:1004A0001F93CF93DF9310E000E0D0E0C0E060E165
:1004B00077E282E00E941901811109C08FEF9FEF5E
:1004C000DF91CF911F910F91FF90EF90089582E3FC
:1004D00090E00E94340B83E00E940D0C7C0161E0EF
:1004E00087E00E94DF0B60E177E282E00E94E90092
:1004F000882321F382E390E00E94340B60E087E0E0
:100500000E94DF0B002E02C0EE0CFF1C0A94E2F7E3
:10051000CE29DF290F5F1F4F0830110541F6C03388
:10052000D10539F0C03FD10511F4C0E3D0E0CE01D0
:10053000C7CFCFE4D0E0FBCF8823E1F08630D1F005
:100540008530D1F08B30C0F4282F30E0853060F456
:100550008091580190E02D5F3F4F02C0959587959F
:100560002A95E2F7817008958091580190E0275014
:100570003109F3CF80E0089581E0089524EF31E060
:10058000882311F02AEF30E0309303012093020119
:10059000811104C084E080930401089588E0FBCFBA
:1005A0009091610180916201981749F1E091610198
:1005B00081E08E0F80936101F0E0ED59FE4F808164
:1005C0008093580110925A0180915F0190916001CF
:1005D0000A9798F08DE08093590181E090E0909324
:1005E00001018093000184EF91E0909303018093D7
:1005F000020184E080930401089580E1ECCF82E061
:1006000090E090930101809300018AEF90E0909335
:1006100003018093020188E0EDCF80910001909169
:100620000101892B69F480915B0190915C01019734
:1006300090935C0180935B01892BA1F50C94D0020F
:1006400080910001909101010197B1F580915A01CB
:100650008F5F80935A0190915901891730F48091EE
:100660005A010E949C020C94BE0280915F019091FD
:10067000600101969093600180935F0120915F017A
:100680003091600180915D0190915E0128173907DA
:10069000A9F683E090E0909301018093000182E04D
:1006A000809357018AEF90E09093030180930201B9
:1006B00088E08093040108958091000190910101E8
:1006C000029709F4BBCF809100019091010103973B
:1006D00091F7809157018150809357018111E2CFAA
:1006E00080916F008D7F80936F005C9884E090E034
:1006F000909301018093000181E080935601089559
:100700005C9B18C05C98809102019091030120913C
:10071000880030918900820F931F90938900809305
:10072000880080910401815080930401811111C0DF
:100730000C940D035C9A2091020130910301809189
:10074000880090918900820F931F90938900809375
:100750008800089590935E0180935D01109260017E
:1007600010925F0188EE93E090935C0180935B01AF
:100770001092010110920001109256018AEF90E050
:10078000909303018093020188E08093040110920A
:10079000800082E08093810086BB809184009091EC
:1007A00085002091020130910301820F931F9093E5
:1007B000890080938800EFE6F0E08081826080838A
:1007C00008959FB7F894EFE6F0E080818D7F8083F5
:1007D0005C9824E030E030930101209300019FBF3A
:1007E00008958F929F92AF92BF92CF92DF92EF9235
:1007F000FF926C010E94030B4B015C010D2C000C5D
:10080000EE08FF0885E00E940D0C892BA9F40E94D8
:10081000030B681979098A099B09C616D706E806E9
:10082000F90680F780E0FF90EF90DF90CF90BF90C7
:10083000AF909F908F90089581E0F5CF8F929F9217
:10084000AF92BF92CF92DF92EF92FF926C010E9423
:10085000030B4B015C010D2C000CEE08FF0885E03A
:100860000E940D0C892BA9F00E94030B68197909CD
:100870008A099B09C616D706E806F90680F780E0C4
:10088000FF90EF90DF90CF90BF90AF909F908F90B0
:10089000089581E0F5CFCF92DF92EF92FF920F9310
:1008A0001F93CF938C0120E137E2C9010E94F1032D
:1008B000882379F10E940F0BF80160837183828392
:1008C000938388EE93E00E941E04882311F188EE42
:1008D00093E00E94F103C82F8823D9F00E940F0BE8
:1008E00028EE33E0F801C080D180E280F3806C19FB
:1008F0007D098E099F096E30714081059105A8F22E
:100900008C2FCF911F910F91FF90EF90DF90CF90A0
:100910000895C0E0F5CFCF92DF92EF92FF920F9350
:100920001F93CF93DF938C01EB010E940F0B6B01A0
:100930007C01C8010E944B04182F0E940F0B6C19F8
:100940007D098E099F09688379838A839B83812F20
:10095000DF91CF911F910F91FF90EF90DF90CF909B
:100960000895CF92DF92EF92FF920F931F93CF9350
:10097000DF936B017C01D0E0C0E010E000E00E945A
:100980000F0B6C197D098E099F09603D7740810529
:10099000910548F485E00E940D0C0817190709F02D
:1009A00021968C01ECCF81E02C970CF480E0DF9154
:1009B000CF911F910F91FF90EF90DF90CF9008950E
:1009C0000E94B10491E0892708950E940F0B0C94B6
:1009D000B104CF92DF92EF92FF920F931F93CF93C8
:1009E000DF9304E010E0D0E0C0E0C12CD12C760110
:1009F000C3940E940F0B0E94B104B701A601002E00
:100A000004C0440F551F661F771F0A94D2F788232E
:100A1000B1F0C42BD52B0F5F1F4F0830110549F7DC
:100A20000E94E504811110C08BEF9FEFDF91CF9101
:100A30001F910F91FF90EF90DF90CF900895409518
:100A40005095C423D523E7CF0E940F0B0E94E004EA
:100A5000882351F310E000E0C12CD12C7601C3941F
:100A60000E940F0B0E94B104B701A601002E04C022
:100A7000440F551F661F771F0A94D2F7882369F029
:100A8000C42BD52B0F5F1F4F0430110549F70E946F
:100A9000E504882349F2CE01C9CF40955095C4237F
:100AA000D523F0CF1F920F920FB60F9211242F93E0
:100AB0003F934F935F936F937F938F939F93AF93E6
:100AC000BF93EF93FF930E948003FF91EF91BF913B
:100AD000AF919F918F917F916F915F914F913F91D6
:100AE0002F910F900FBE0F901F901895CF92DF920D
:100AF000EF92FF920E94030B6B017C018AEF92E060
:100B00000E94360C892B91F40E94030B6C197D090D
:100B10008E099F09613D77408105910578F38FEF3C
:100B20009FEFFF90EF90DF90CF9008958AEF92E0D3
:100B30000E94500CF6CFCF92DF92EF92FF92CF93AC
:100B4000DF930E94030B6B017C018AEF92E00E940D
:100B5000360C0297A4F40E94030B6C197D098E09D0
:100B60009F09613D77408105910578F38FEF9FEFF5
:100B7000DF91CF91FF90EF90DF90CF9008958AEFB3
:100B800092E00E94500CEC018AEF92E00E94500C1F
:100B900020E0382FC9018C2B9D2BEACF8AEF92E001
:100BA0000E94360C892B61F08AEF92E00E94500C73
:100BB0009C0181E02831310529F02B31310511F0FC
:100BC00080E00895089585E00E940D0C892B31F492
:100BD0000E94CE058823B9F380E0089581E008954E
:100BE000CF93DF93EC0165E18AEF92E00E94C30CA2
:100BF000BE018AEF92E0DF91CF910C948D00CF93EC
:100C0000DF9300D0CDB7DEB79A83898397FF14C0F6
:100C1000CE0101960E94940097FF0BC0919581959B
:100C200091090E94F00581E00F900F90DF91CF9124
:100C3000089590E080E0F5CF80E0F6CF009721F0B6
:100C40000E94F00581E0089580E0089566E08AEF53
:100C500092E00C94C30C4F925F926F927F928F92AE
:100C60009F92AF92BF92EF92FF920F931F93CF93F9
:100C7000DF937C010E94030B2B013C0147010F2CE9
:100C8000000CAA08BB088AEF92E00E94360C009183
:100C9000690210916A0220916B0230916C02181661
:100CA0001906BCF402171307A4F48AEF92E00E941D
:100CB000500C2091690230916A02A9014F5F5F4F89
:100CC00050936A024093690223553D4FF901808396
:100CD000DACF0217130799F5209165023091660269
:100CE00080916702909168022817390741F5C091F9
:100CF0006302D0916402C01BD10BD0936402C093F5
:100D00006302A8016DEA72E08DE692E00E94B00FE6
:100D100010936802009367021092660210926502B7
:100D2000C134D10514F0C0E4D0E0D0936C02C0937C
:100D30006B0210926A02109269020E94260680914C
:100D400065029091660220916702309168028217D5
:100D50009307DCF49C012F5F3F4F30936602209392
:100D6000650283599D4FFC01808190E0DF91CF9116
:100D70001F910F91FF90EF90BF90AF909F908F9039
:100D80007F906F905F904F90089580916302909153
:100D90006402181619061CF081E09FEFE7CF1E14BD
:100DA0001F040CF070CF0E94030B641975098609AB
:100DB000970986169706A806B90608F064CF8FEF44
:100DC0009FEFD4CFEF92FF920F931F93CF93DF93B8
:100DD00000D0CDB7DEB77C010E949B059A83898342
:100DE00097FF18C0CE0101960E94940097FF0FC094
:100DF0009195819591090E94F00580E00F900F90E8
:100E0000DF91CF911F910F91FF90EF90089590E0A7
:100E100080E0F1CF0E94260689819A8197FF02C067
:100E200090E080E00E94CD0090E080E00E942B06E0
:100E30008C0101308FEF180779F0C8010E94FF057F
:100E40008111DBCFC80117FD80E0F70109950E94F1
:100E50001E06882349F3D1CF81E0D0CF62E08AEF2C
:100E600092E00C94C30CCF93DF93EC018731910592
:100E700074F4853191052CF48330910511F040977D
:100E800041F460E18AEF92E00E94C30C02C04897EF
:100E9000C1F3BE018AEF92E0DF91CF910C948D00F7
:100EA00063E08AEF92E00C94C30CEF92FF920F93F1
:100EB0001F93CF93DF93CDB7DEB728970FB6F89483
:100EC000DEBF0FBECDBF0E9426060E94E305811142
:100ED00011C082E090E00E94F00528960FB6F894C9
:100EE000DEBF0FBECDBFDF91CF911F910F91FF905D
:100EF000EF9008950E940A0297FD05C0409719F0EF
:100F000083E090E0E8CF1D821E821F821886CE010A
:100F100005960E944B0410E0811103C081E090E02F
:100F2000DACF6D817E818F8198850E94E004082F41
:100F3000882399F00E94E9047C010E94FF05811139
:100F4000CCCF111102C00E942E07C701F7FE02C0CC
:100F500090E080E00E943307102F19821A821B82D2
:100F60001C82BE016F5F7F4FCE0105960E948B04ED
:100F70008823A1F289819A81AB81BC81813197421A
:100F8000A105B10570F20E945007A7CFCF93DF9360
:100F9000EC0161E08AEF92E00E94C30C63E070E034
:100FA0008AEF92E00E948D00BE018AEF92E0DF910D
:100FB000CF910C948D00CF93DF93EC0161E08AEF29
:100FC00092E00E94C30C64E070E08AEF92E00E941D
:100FD0008D00BE018AEF92E0DF91CF910C948D00DD
:100FE00061E08AEF92E00E94C30C68E070E08AEF53
:100FF00092E00C948D00CF92DF92EF92FF92CF930C
:10100000DF930E94F0070E942E070E940F0B6B01D6
:101010007C0182E00E940D0C892B99F40E940F0B39
:101020006C197D098E099F096135734C8105910505
:1010300080F3DF91CF91FF90EF90DF90CF900C94F1
:10104000500761E087E00E94DF0B89E00E940D0CF1
:1010500031E020E0892B09F430E0C32FD22F88E063
:101060000E940D0C892B09F0C26083E00E940D0CD8
:10107000892B09F0C46086E00E940D0C892B09F0D1
:10108000C86060E177E282E00E94E90081110AC055
:1010900081E090E0DF91CF91FF90EF90DF90CF90D3
:1010A0000C94F00584E690E00E94340B60E087E049
:1010B0000E94DF0B60E177E282E00E941901882341
:1010C00039F361E087E00E94DF0B89E00E940D0C9C
:1010D000892B09F0C06188E00E940D0C892B09F072
:1010E000C06283E00E940D0C892B09F0C06486E089
:1010F0000E940D0C892B09F0C06860E177E282E064
:101100000E94E900882321F284E690E00E94340BDB
:1011100060E087E00E94DF0B0E940F0B6B017C01F7
:10112000CE010E94330775CF8F929F92AF92BF92EC
:10113000DF92EF92FF920F931F93CF93DF930E9462
:101140009B05EC010E94FF05811198C00E94760565
:101150008C010E94FF05F82E811190C01C161D06FF
:101160001CF40A30110579F083E090E0DF91CF9113
:101170001F910F91FF90EF90DF90BF90AF909F90E5
:101180008F900C94F00510926101109262010E9400
:10119000260610E000E00C171D0708F057C0CE012E
:1011A000801B910BDC2ED01A8134910510F080E465
:1011B000D82E0E94030B4B015C01E12CED14C0F50D
:1011C00080916201909161018F5F891315C00E9427
:1011D000030B681979098A099B09693873418105EC
:1011E000910560F3F1100E94E10360E08DE00E9440
:1011F000DF0B81E090E0BACF8AEF92E00E94360CDC
:10120000892B29F38AEF92E00E94500CE091620151
:1012100091E09E0F90936201F0E0ED59FE4F8083C4
:10122000E3940F5F1F4F0E94030B4B015C01C6CF7D
:10123000F11007C061E08DE00E94DF0BCE010E943B
:10124000AA030E942606FF24F394A5CF809156019D
:101250008823E1F360E08DE00E94DF0B63E08AEF1A
:1012600092E0DF91CF911F910F91FF90EF90DF906F
:10127000BF90AF909F908F900C94C30CDF91CF9153
:101280001F910F91FF90EF90DF90BF90AF909F90D4
:101290008F90089561E08AEF92E00E94C30C61E0B4
:1012A0008AEF92E00E94C30C63E08AEF92E00E9412
:1012B000C30C60E470E08AEF92E00E948D0062E06F
:1012C0008AEF92E00E94C30C45E150E06AE071E0D1
:1012D0008AEF92E00E94010E4AE050E061E070E087
:1012E0008AEF92E00E94E00E60E271E08AEF92E005
:1012F0000E943D0E4AE050E063E070E08AEF92E029
:101300000E94E00E62E271E08AEF92E00E943D0EE0
:1013100063E08AEF92E00C94C30CCF93DF9300D08C
:1013200000D0CDB7DEB78AEF92E00E94360C892B51
:1013300061F08AEF92E00E94500C8631910561F4D1
:1013400066E18AEF92E00E94C30C0F900F900F901D
:101350000F90DF91CF9108950197B9F70E9476051C
:101360009C838B8397FF0CC0CE0103960E94940050
:1013700097FF29C09195819591090E94F005E5CFCD
:1013800086309105D1F044F48130910599F00297AF
:10139000E1F60E942606D9CF8730910589F008979B
:1013A000A1F60E9476059A83898397FF0FC0CE012C
:1013B0000196DCCF0E944A09C8CF0E949408C5CF8D
:1013C0000E945507C2CF90E080E0D7CF89E491E03A
:1013D0000E94E20689819A818F3F910509F0B5CF7D
:1013E0000E94FB07B2CFCF92DF92EF92FF920F9352
:1013F0001F93CF93DF930E948D0985E00E940D0C0F
:101400008C01892B09F10E940A02EC0197FD1CC096
:101410000F97029728F0CE018B7F81349105A1F4BC
:1014200061E087E00E94DF0B88E293E20E94340BC8
:1014300060E087E00E94DF0BCE010E94C607C13446
:10144000D10511F40E94FB0782E00E940D0C892B4C
:1014500039F0012B29F40E944D0297FF0E94DB070F
:101460000E94030B0091ED021091EE022091EF0219
:101470003091F0026B017C01C01AD10AE20AF30A32
:1014800097018601083E134021053105D0F0609395
:10149000ED027093EE028093EF029093F0028DE0E4
:1014A0000E940D0C61E0892B09F060E08DE0DF9176
:1014B000CF911F910F91FF90EF90DF90CF900C9400
:1014C000DF0BDF91CF911F910F91FF90EF90DF9095
:1014D000CF90089508951F920F920FB60F92112486
:1014E0002F933F934F935F936F937F938F939F932C
:1014F000AF93BF93EF93FF93E0910501F091060145
:101500000995FF91EF91BF91AF919F918F917F913D
:101510006F915F914F913F912F910F900FBE0F9060
:101520001F9018951F920F920FB60F9211242F93B0
:101530003F934F935F936F937F938F939F93AF935B
:10154000BF93EF93FF93E0910701F0910801099594
:10155000FF91EF91BF91AF919F918F917F916F918B
:101560005F914F913F912F910F900FBE0F901F9061
:1015700018951F920F920FB60F9211242F933F933D
:101580008F939F93AF93BF938091F2029091F30258
:10159000A091F402B091F5023091F10223E0230F03
:1015A0002D3758F50196A11DB11D2093F1028093AE
:1015B000F2029093F302A093F402B093F5028091AB
:1015C000F6029091F702A091F802B091F90201960B
:1015D000A11DB11D8093F6029093F702A093F8022B
:1015E000B093F902BF91AF919F918F913F912F914D
:1015F0000F900FBE0F901F90189526E8230F0296AC
:10160000A11DB11DD2CF2FB7F8946091F202709155
:10161000F3028091F4029091F5022FBF08953FB735
:10162000F8948091F6029091F702A091F802B0919F
:10163000F90226B5A89B05C02F3F19F00196A11D00
:10164000B11D3FBFBA2FA92F982F8827BC01CD010C
:10165000620F711D811D911D42E0660F771F881F6B
:10166000991F4A95D1F708958230910538F0880F77
:10167000991F880F991F05970197F1F7089578949E
:1016800084B5826084BD84B5816084BD85B5826087
:1016900085BD85B5816085BDEEE6F0E08081816025
:1016A0008083E1E8F0E01082808182608083808125
:1016B00081608083E0E8F0E0808181608083E1EBFD
:1016C000F0E0808184608083E0EBF0E080818160E5
:1016D0008083EAE7F0E0808184608083808182609B
:1016E0008083808181608083808180688083109284
:1016F000C1000895833081F028F4813099F0823060
:10170000A9F008958730A9F08830C9F08430B1F489
:10171000809180008F7D03C0809180008F778093BF
:101720008000089584B58F7784BD089584B58F7D3A
:10173000FBCF8091B0008F778093B00008958091A7
:10174000B0008F7DF9CFCF93DF9390E0FC01E45898
:10175000FF4F249180579F4FFC0184918823C9F04B
:1017600090E0880F991FFC01E854FF4FA591B491B8
:10177000FC01E255FF4FC591D49161110DC09FB797
:10178000F8948C91209582238C9388812823288338
:101790009FBFDF91CF910895623051F49FB7F894C5
:1017A0003C91822F809583238C93E8812E2BEFCF61
:1017B0008FB7F894EC912E2B2C938FBFEACF1F9309
:1017C000CF93DF93282F30E0F901E859FF4F849140
:1017D000F901E458FF4FD491F901E057FF4FC4914C
:1017E000CC23A9F0162F81110E947A0BEC2FF0E088
:1017F000EE0FFF1FE255FF4FA591B4918FB7F894FC
:10180000EC91111108C0D095DE23DC938FBFDF91DE
:10181000CF911F910895DE2BF8CFCF93DF93282F20
:1018200030E0F901E859FF4F8491F901E458FF4F86
:10183000D491F901E057FF4FC491CC23A1F081115D
:101840000E947A0BEC2FF0E0EE0FFF1FEC55FF4FDC
:10185000A591B491EC91ED2381E090E009F480E052
:10186000DF91CF91089580E090E0FACFFC01918D57
:10187000228D892F90E0805C9F4F821B91098F738E
:1018800099270895FC01918D828D981731F0828DF2
:10189000E80FF11D858D90E008958FEF9FEF08957B
:1018A000FC01918D828D981761F0A28DAE0FBF2F34
:1018B000B11D5D968C91928D9F5F9F73928F90E08A
:1018C00008958FEF9FEF0895FC01538D448D252FD0
:1018D00030E0842F90E0821B930B541710F0CF96CA
:1018E0000895019708958AEC9DE0892B49F080E0E6
:1018F00090E0892B29F00E94CA0D81110C94000000
:101900000895FC01A48DA80FB92FB11DA35ABF4F94
:101910002C91848D90E001968F739927848FA689EE
:10192000B7892C93A089B1898C91837080648C9342
:10193000938D848D981306C00288F389E02D8081F1
:101940008F7D80830895CF93DF93EC01888D88236A
:10195000B9F0AA89BB89E889F9898C9185FD03C012
:10196000808186FD0DC00FB607FCF7CF8C9185FFF7
:10197000F2CF808185FFEDCFCE010E94810CE9CFAF
:10198000DF91CF910895EF92FF920F931F93CF9322
:10199000DF93EC0181E0888F9B8D8C8D98131AC0AA
:1019A000E889F989808185FF15C09FB7F894EE8991
:1019B000FF896083E889F9898081837080648083EE
:1019C0009FBF81E090E0DF91CF911F910F91FF9039
:1019D000EF900895F62E0B8D10E00F5F1F4F0F73E1
:1019E0001127E02E8C8D8E110CC00FB607FCFACF9C
:1019F000E889F989808185FFF5CFCE010E94810CAD
:101A0000F1CFEB8DEC0FFD2FF11DE35AFF4FF0826C
:101A10009FB7F8940B8FEA89FB8980818062CFCFD2
:101A2000CF92DF92EF92FF921F93CF93DF93EC015F
:101A30006A017B01122FE889F98982E08083C11451
:101A400081EED806E104F104A1F060E079E08DE3D5
:101A500090E0A70196010E94880F215031094109A9
:101A600051095695479537952795211580E13807F7
:101A700098F0E889F989108260E874E88EE190E0D6
:101A8000A70196010E94880F21503109410951098F
:101A90005695479537952795EC85FD853083EE85DE
:101AA000FF852083188EEC89FD891083EA89FB89E4
:101AB000808180618083EA89FB898081886080835E
:101AC000EA89FB89808180688083EA89FB8980813B
:101AD0008F7D8083DF91CF911F91FF90EF90DF90FA
:101AE000CF9008951F920F920FB60F9211242F934B
:101AF0008F939F93EF93FF93E0910A03F0910B0371
:101B00008081E0911003F091110382FD1BC0908150
:101B1000809113038F5F8F7320911403821741F01C
:101B2000E0911303F0E0E650FD4F958F809313038F
:101B3000FF91EF919F918F912F910F900FBE0F907A
:101B40001F9018958081F4CF1F920F920FB60F92BD
:101B500011242F933F934F935F936F937F938F93B2
:101B60009F93AF93BF93EF93FF938AEF92E00E940E
:101B7000810CFF91EF91BF91AF919F918F917F91D8
:101B80006F915F914F913F912F910F900FBE0F90EA
:101B90001F9018958AEF92E00E94360C21E0892B65
:101BA00009F420E0822F0895EAEFF2E01382128216
:101BB00088EE93E0A0E0B0E084839583A683B783AA
:101BC00088E491E09183808385EC90E09587848719
:101BD00084EC90E09787868780EC90E0918B808BF7
:101BE00081EC90E0938B828B82EC90E0958B848BE0
:101BF00086EC90E0978B868B118E128E138E148E4E
:101C00000895AF92BF92CF92DF92EF92FF920F931F
:101C10001F93CF93DF936C017B018B01040F151F82
:101C2000EB015E01AE18BF08C017D10759F06991EA
:101C3000D601ED91FC910190F081E02DC60109954E
:101C4000892B79F7C501DF91CF911F910F91FF90FB
:101C5000EF90DF90CF90BF90AF900895FB0101907F
:101C60000020E9F73197AF01461B570BDC01ED91DE
:101C7000FC910280F381E02D09946115710511F04A
:101C80000C942E0E90E080E00895DC01ED91FC9123
:101C90000190F081E02D09948F929F92AF92BF92B4
:101CA000EF92FF920F931F93CF93DF93CDB7DEB7E1
:101CB000A1970FB6F894DEBF0FBECDBF7C01FA012D
:101CC000CB0119A2223008F42AE08E010F5D1F4FCC
:101CD000822E912CB12CA12CBF01A50194010E9450
:101CE000880FF901CA016A300CF5605DD8016E9366
:101CF0008D01232B242B252B79F790E080E0109782
:101D000021F0BD01C7010E942E0EA1960FB6F894D6
:101D1000DEBF0FBECDBFDF91CF911F910F91FF901E
:101D2000EF90BF90AF909F908F900895695CDECF49
:101D3000CF92DF92EF92FF920F931F93CF93DF9397
:101D40002115310581F4DC01ED91FC910190F081C8
:101D5000E02D642FDF91CF911F910F91FF90EF90B5
:101D6000DF90CF9009942A30310501F52AE077FF02
:101D70001DC06A017B01EC016DE20E94450E8C01E1
:101D800044275527BA014C195D096E097F092AE0DD
:101D9000CE010E944C0E800F911FDF91CF911F91B9
:101DA0000F91FF90EF90DF90CF900895DF91CF914A
:101DB0001F910F91FF90EF90DF90CF900C944C0EFD
:101DC0009A01AB01770F660B770B0C94980E81305C
:101DD00039F018F0823051F0089510926E00089595
:101DE00080916F008D7F80936F00089580917000C7
:101DF0008D7F8093700081E08093B0008091B1006E
:101E0000887F84608093B1001092B3000895CF93CF
:101E1000C82F80910901C8130DC0E2ECF0E0849155
:101E20009FEF909309010E94E70E60E08C2FCF9105
:101E30000C94DF0B8FEFF7CF1F920F920FB60F921C
:101E400011242F933F934F935F936F937F938F93BF
:101E50009F93AF93BF93EF93FF9380919A039091D9
:101E60009B03A0919C03B0919D03892B8A2B8B2B04
:101E7000D1F190919703E0919803F09199038081BB
:101E80008927808380919A0390919B03A0919C0362
:101E9000B0919D03181619061A061B069CF4809132
:101EA0009A0390919B03A0919C03B0919D0301978D
:101EB000A109B10980939A0390939B03A0939C037B
:101EC000B0939D03FF91EF91BF91AF919F918F913F
:101ED0007F916F915F914F913F912F910F900FBE26
:101EE0000F901F901895809109010E94070FEACF6B
:101EF00008950E943F0B0E94780F0E94A000C3E744
:101F0000DCE00E94F3092097E1F30E94730CF9CF03
:101F1000A1E21A2EAA1BBB1BFD010DC0AA1FBB1FED
:101F2000EE1FFF1FA217B307E407F50720F0A21B5F
:101F3000B30BE40BF50B661F771F881F991F1A94CC
:101F400069F760957095809590959B01AC01BD01F6
:101F5000CF010895EE0FFF1F0590F491E02D099435
:101F6000FB01DC0102C001900D9241505040D8F7B6
:061F70000895F894FFCF74
:101F76000400FA00086A0A6A0AFF53686172702050
:101F860041726475696E6F204472697665722000CD
:101F96002E00202D2073796E6368726F20327320B5
:101FA6002D20666C757820636F6E74696E75205689
:101FB600350D0A0000000000C30C010E640CA30CD2
:061FC600360C500C420C29
:00000001FF
